:100000000C942A000C9447000C9447000C94470071
:100010000C9447000C94DB020C9447000C9458039A
:100020000C9447000C94A3020C9447000C946E02AD
:100030000C9447000C9447000C9447000C94470024
:100040000C9447000C9447000C9447000C94470014
:100050000C94470011241FBECFE5D8E0DEBFCDBF12
:1000600013E0A0E6B0E0ECE6FBE002C005900D92E4
:10007000A837B107D9F724E0A8E7B3E001C01D9283
:10008000A138B207E1F70E94C0030C94B4050C94A8
:100090000000CF93882331F08091780380648093AF
:1000A000780305C0809178038F7B809378038091DB
:1000B00078038062809378036091780380E00E94E7
:1000C0001A0264E080E00E94660200C060E080E006
:1000D0000E940302C82F64E080E00E946A0200C010
:1000E00064E080E00E94660200C060E080E00E9460
:1000F0000302C295C07F8F70C82B64E080E00E942D
:100100006A028C2FCF91089580E00E9449008823D5
:10011000DCF388E090E00197F1F780E00E9449006D
:10012000089564E080E00E94660200C064E080E020
:100130000E946A020895CF93C82F662331F0809100
:10014000780380648093780305C0809178038F7B67
:1001500080937803809178038F7D809378036091FA
:10016000780380E00E941A0280917803877F809351
:100170007803809178038B7F809378038091780354
:100180008D7F80937803809178038E7F80937803AE
:10019000CC232CF480917803886080937803C6FF89
:1001A00005C080917803846080937803C5FF05C003
:1001B00080917803826080937803C4FF05C08091AA
:1001C00078038160809378036091780380E00E94D7
:1001D0001A020E94910080917803877F80937803B0
:1001E000809178038B7F80937803809178038D7F53
:1001F00080937803809178038E7F80937803C3FF88
:1002000005C080917803886080937803C2FF05C0A1
:1002100080917803846080937803C1FF05C080914A
:100220007803826080937803C0FF05C080917803D3
:100230008160809378036091780380E00E941A02C5
:100240000E9491008091780381608093780380916F
:100250007803826080937803809178038460809330
:1002600078038091780388608093780360917803A5
:1002700080E00E941A02CF910895CF93C82F0E9468
:10028000840060E08C2F0E949B00CF910895611143
:1002900004C080580E943D01089580540E943D0191
:1002A000089581E00E943D010895882331F08091F6
:1002B00078038F778093780305C0809178038068F6
:1002C000809378036091780380E00E941A02089579
:1002D00082E00E943D010895CF93C82F0E948400C0
:1002E000CA3049F4803410F080E001C080E48058C6
:1002F0000E943D0113C0803129F460E080EC0E942F
:100300009B0006C0803521F460E080E80E949B00DD
:100310000E94840061E08C2F0E949B00CF91089581
:10032000CF93DF93EC012196FC018081882329F093
:100330000E946C0189918111FBCFDF91CF910895CB
:100340001F93CF93DF93182F0E94F201109278032E
:100350006091780380E00E941A0280E09AEF019792
:10036000F1F780917803826080937803809178031D
:100370008160809378036091780380E00E941A0284
:100380000E94910080E09EE40197F1F70E949100A5
:10039000C0E0D1E0CE010197F1F70E949100CE01BB
:1003A0000197F1F7809178038E7F809378036091B5
:1003B000780380E00E941A020E9491002197F1F7D1
:1003C00088E20E943D0188E00E943D010E945101A7
:1003D00086E00E943D01812F0E943D01DF91CF9177
:1003E0001F9108950E94100385E38A95F1F700009C
:1003F00080E090E0FC01E557FC4F108201968830C8
:100400009105C1F70895883088F4683088F4E82FA2
:10041000F0E0E557FC4F8081082E000C990B02C0DC
:10042000959587956A95E2F7817008958FEF089505
:100430008FEF0895CF93883088F4C62FE82FF0E02F
:10044000E557FC4F6083895D880F0E9414038C2F51
:100450000E9438030E94320380E001C08FEFCF91E9
:100460000895CF93DF93883058F5683058F5282FDA
:1004700030E0F901E557FC4F9081442349F0C1E099
:10048000D0E002C0CC0FDD1F6A95E2F7C92B09C08E
:10049000C1E0D0E002C0CC0FDD1F6A95E2F7C09545
:1004A000C923F901E557FC4FC083895D880F0E947D
:1004B00014038C2F0E9438030E94320380E003C093
:1004C0008FEF01C08FEFDF91CF91089541E00E943F
:1004D0003102089540E00E94310208951F920F9268
:1004E0000FB60F9211242F933F934F935F936F9307
:1004F0007F938F939F93AF93BF93EF93FF938091DD
:10050000880382BF80918603909187030196909320
:10051000870380938603E0918403F09185033097ED
:1005200009F00995FF91EF91BF91AF919F918F9144
:100530007F916F915F914F913F912F910F900FBEDF
:100540000F901F9018951F920F920FB60F921124C3
:100550002F933F934F935F936F937F938F939F93CB
:10056000AF93BF93EF93FF938091820390918303A6
:100570009DBD8CBD809180039091810301969093E5
:10058000810380938003E0917E03F0917F03309795
:1005900009F00995FF91EF91BF91AF919F918F91D4
:1005A0007F916F915F914F913F912F910F900FBE6F
:1005B0000F901F9018951F920F920FB60F92112453
:1005C0002F933F934F935F936F937F938F939F935B
:1005D000AF93BF93EF93FF9380917D0384BD809190
:1005E0007B0390917C03019690937C0380937B0323
:1005F000E0917903F0917A03309709F00995FF9122
:10060000EF91BF91AF919F918F917F916F915F918A
:100610004F913F912F910F900FBE0F901F90189503
:1006200011B880E280B9089594EA96BF06B607FE35
:10063000FDCF91B1987F983011F0903179F483B962
:1006400084E886BF06B607FEFDCF91B1987F98314A
:1006500039F081E0903429F480E0089581E0089534
:1006600080E0089584E986BF06B604FCFDCF0895B6
:1006700083B984E886BF06B607FEFDCF91B1987FA7
:1006800081E0983209F480E008955D9BFECF8CB93B
:100690000895CF93DF93EC018881882331F0219670
:1006A0000E94450389918111FBCFDF91CF9108957D
:1006B0001F920F920FB60F9211248F939F93AF93B7
:1006C000BF9380915B0490915C04A0915D04B09114
:1006D0005E040196A11DB11D80935B0490935C04A0
:1006E000A0935D04B0935E04BF91AF919F918F91F1
:1006F0000F900FBE0F901F90189560E080E00E9451
:10070000470184E690E00E94900161E080E00E9451
:10071000470185E790E00E94900162E080E00E943E
:10072000470187E890E00E94900163E080E00E942A
:10073000470184E690E00E949001D89A10925B04F1
:1007400010925C0410925D0410925E0485E38A9519
:10075000F1F70000D89889B3FECF97B18F70982B2E
:1007600097B9369A349BFECF85E38A95F1F700005E
:1007700024B185B190E0982F8827820F911D0895AC
:1007800081E08ABB17BA8FEF84BB81BB8EB58A60CC
:100790008EBD87E08BBD80ED8ABD89B7806189BF42
:1007A0007894F8948CE00E94A0010E94680181E096
:1007B0000E94550160E080E00E94470184E690E0DD
:1007C0000E94900161E080E00E94470181E391E096
:1007D0000E94900162E080E00E94470182E491E083
:1007E0000E94900163E080E00E94470184E690E06F
:1007F0000E94900121E030E00FC0CB990DC03093F2
:100800008A03209389034FEF89E698E141508040A5
:100810009040E1F700C000008091890390918A0325
:10082000892B59F3C1E0D0E003E010E0CB990EC072
:10083000D0938A03C09389032FEF49E688E12150C2
:1008400040408040E1F700C0000004C010928A03DD
:10085000109289038091600090916100019701F5E9
:1008600060E080E00E94470184E690E00E949001F1
:1008700061E080E00E94470183E591E00E949001E1
:1008800062E08CEF0E94470184E691E00E949001B3
:1008900063E08CEF0E94470185E791E00E949001A0
:1008A00082E00E94AD03853893406CF08091620035
:1008B0009091630001979093630080936200D093BE
:1008C0006100C093600082E00E94AD03883C910506
:1008D0006CF48091620090916300019690936300A4
:1008E00080936200D0936100C093600080916200A9
:1008F000909163008430910564F0D0936300C093BD
:1009000062008091600090916100019709F098C0A9
:100910001CC01816190664F010936300009362005F
:100920008091600090916100019709F089C05DC0DD
:100930008091600090916100019709F081C08091E1
:10094000620090916300019729F561E080E00E94C8
:10095000470186E891E00E94900162E08CEF0E94DE
:10096000470184E393E00E94900163E08CEF0E94D2
:10097000470184E393E00E9490011092610010927D
:1009800060004FEF89E698E1415080409040E1F7E8
:1009900000C000008091620090916300029729F5E9
:1009A00061E080E00E94470184E393E00E949001AF
:1009B00062E08CEF0E94470186E891E00E9490017E
:1009C00063E08CEF0E94470184E393E00E94900172
:1009D00010926100109260002FEF49E688E12150EB
:1009E00040408040E1F700C000008091620090919B
:1009F0006300039729F561E080E00E94470184E3EA
:100A000093E00E94900162E08CEF0E94470184E332
:100A100093E00E94900163E08CEF0E94470186E81A
:100A200091E00E94900110926100109260009FEF8F
:100A300029E648E1915020404040E1F700C0000025
:100A40008091890390918A03019709F0EFCE8091FC
:100A50006200909163008130910511F40E947D0342
:100A6000029709F041C060E080E00E94470184E6FF
:100A700090E00E94900161E080E00E94470188E8D8
:100A800091E00E94900162E08CEF0E94470187E9AB
:100A900091E00E94900163E08CEF0E94470184E6A0
:100AA00090E00E94900188E990E00E94490383EC65
:100AB00090E00E9449038FE594E00E94490387EA91
:100AC00091E00E94490361E080E00E94470185EBCC
:100AD00091E00E9490018FEF93ED20E381509040D0
:100AE0002040E1F700C00000809162009091630017
:100AF000039789F560E080E00E94470184E690E07A
:100B00000E94900161E080E00E94470185EC91E045
:100B10000E94900162E08CEF0E94470187E991E01A
:100B20000E94900163E08CEF0E94470184E690E010
:100B30000E94900188E990E00E94490382EA90E0D7
:100B40000E9449034FEF83E294EF41508040904070
:100B5000E1F700C0000010928A0310928903D0933D
:0C0B60006100C093600062CEF894FFCFEB
:100B6C00010001002A2A2A2A2A2A2A2A2A2A2A2A7F
:100B7C002A2A2A2A002A3C3C3C636865636B696E0E
:100B8C00673E3E3E202A002A20207269636520734E
:100B9C00746F636B20202A0041542B434D47463D14
:100BAC00310041542B434D474C3D27524543205572
:100BBC004E52454144270041542B434D47443D3050
:100BCC0031330041542B434D47533D003133457273
:100BDC00726F7220696E7075743236002A3C3C3C20
:100BEC00636F6F6B696E673E3E3E202A002A2020A1
:100BFC00202E2E2E2E2E2E2E2E2E20202A002A2077
:100C0C002054616B6520726963652020202A002ABC
:100C1C003C3C3C57617368696E673E3E3E202A003F
:100C2C002A636C65616E696E672E2E2E2E2E202A1D
:100C3C00002A20202057454C434F4D452121202090
:100C4C002A002A20202057616974696E672E2E2E87
:100C5C00202A002020556C747261736F6E696320BA
:100C6C0020202000202073656E6420534D532020DB
:100C7C00202020200020207265616420534D5320D9
:100C8C002020202020003E00202073656E646469C3
:100C9C006E67202020200020202E2E2E2E2E2E2E71
:100CAC002E2020202020003133436F6E666F726D32
:100CBC006564323600202073656E7420534D5320CA
:100CCC00202020200020207265616464696E6720FA
:100CDC00202020002A203E517569636B206D6F64C3
:100CEC006520202A002A202054696D65206D6F64D0
:100CFC00652020202A002A2020517569636B206D05
:100D0C006F646520202A002A203E54696D65206D91
:100D1C006F64652020202A002A3C3C3C66696E6981
:100D2C00736865643E3E3E2A002A20796F75206305
:100D3C00616E2065617420202A00313346696E692A
:100D4C007368656420636F6F6B3236002073657453
:100D5C0020686F757273203A003E303120202020BD
:100D6C002020202020002030322020202020202075
:100D7C002020002030332020202020202020200084
:100D8C00203031202020202020202020003E303216
:100D9C00202020202020202020003E303320202026
:100DAC00202020202020003E303420202020202015
:100DBC002020200020303520202020202020202022
:100DCC000020303620202020202020202000203021
:100DDC0037202020202020202020002030342020EC
:100DEC0020202020202020003E30352020202020D4
:100DFC0020202020003E30362020202020202020C3
:100E0C0020003E3037202020202020202020003EB3
:100E1C003038202020202020202020002030392095
:100E2C0020202020202020200020313020202020B5
:100E3C0020202020200020313120202020202020A4
:100E4C0020200020303820202020202020202000AE
:100E5C003E3039202020202020202020003E31311F
:100E6C00202020202020202020003E313220202055
:080E7C002020202020200000AE
:00000001FF
