:100000000C946C000C9494000C9494000C94940048
:100010000C9494000C9494000C9494000C94940010
:100020000C9494000C9494000C9494000C943C0652
:100030000C9494000C94E6080C9418090C94940009
:100040000C9494000C9494000C9494000C940F0461
:100050000C9494000000000200000000000000006A
:100060000504000700000000000000000000000080
:100070000000000001020408102040800102040872
:100080001020408001020408102040800102040872
:100090001020408002020202020202020404040450
:1000A0000404040403030303030303030101010124
:1000B000010101010000390036003300300000006A
:1000C0003B0038003500320000003A0037003400B1
:1000D00031005A025603480911241FBECFE5D8E06B
:1000E000DEBFCDBF11E0A0E6B0E0E0ECF7E102C07A
:1000F00005900D92AE34B107D9F722E0AEE4B1E03D
:1001000001C01D92AA3CB207E1F710E0CCE6D0E0B6
:1001100004C02197FE010E94D80BC936D107C9F748
:100120000E94750A0C94DE0B0C940000CF92DF92B3
:10013000EF92FF920F931F93E82FF92F05C0015004
:1001400011092109310961F1908196239417B9F3BE
:1001500005C0015011092109310911F1908196233F
:100160009413F7CFC12CD12CE12CF12C0AC08FEFC6
:10017000C81AD80AE80AF80A0C151D052E053F050D
:1001800079F080818623841791F36C2D7D2D8E2D3F
:100190009F2D1F910F91FF90EF90DF90CF900895CA
:1001A00060E070E080E090E01F910F91FF90EF9091
:1001B000DF90CF90089562E08BE10E94280760E015
:1001C0008AE10E94280761E080E00E94280760E041
:1001D00081E00E94280726E040E855E260E070E0F8
:1001E0008DE292E00E948D0881E08ABB17BA8FEF02
:1001F00084BB81BB84E591E00E94970584E591E092
:100200000E94E30584E591E00E94510540E060E032
:1002100084E591E00E94A50568E670E084E591E040
:100220000E94AF0941E060E084E591E00E94A505ED
:1002300069E770E084E591E00E94AF0942E06CEF6D
:1002400084E591E00E94A5056AE870E084E591E00C
:100250000E94AF0943E06CEF84E591E00E94A505A0
:1002600068E670E084E591E00E94AF0943E06CEF3E
:1002700084E591E00E94A50568EC70E080E090E0E4
:100280000E94AC0640E060E084E591E00E94A50594
:1002900068E670E084E591E00E94AF0941E060E02B
:1002A00084E591E00E94A5056BE970E084E591E0AA
:1002B0000E94AF0942E06CEF84E591E00E94A50541
:1002C0006CEA70E084E591E00E94AF0943E06CEFD6
:1002D00084E591E00E94A50568E670E084E591E080
:1002E0000E94AF09D89A089560E080E00E946407F8
:1002F00082E090E00E94E50661E080E00E946407F1
:100300008AE090E00E94E50660E080E00E946407D9
:1003100020E432E44FE050E061E081E00E94920787
:100320006093500170935101809352019093530157
:100330000E94BD0A26E933E44BE05DE30E94490BCD
:1003400020E030E040E05FE30E94490B0E94850A14
:1003500070934F0160934E0184E591E00E949705F0
:1003600040E060E084E591E00E94A50568E670E069
:1003700084E591E00E94AF0941E060E084E591E00E
:100380000E94A5056CEB70E084E591E00E94AF0946
:1003900042E06CEF84E591E00E94A50560914E017A
:1003A00070914F014AE050E084E591E00E946D0AAF
:1003B00042E064E084E591E00E94A5056BEC70E00A
:1003C00084E591E00E94AF0943E06CEF84E591E0A1
:1003D0000E94A50568E670E084E591E00E94AF09FF
:1003E00084E591E00E94970540E060E084E591E0BB
:1003F0000E94A50568E670E084E591E00E94AF09DF
:1004000041E060E084E591E00E94A5056EEC70E0BB
:1004100084E591E00E94AF0942E06CEF84E591E051
:100420000E94A5056FED70E084E591E00E94AF09A0
:1004300043E06CEF84E591E00E94A50568E670E07A
:1004400084E591E00E94AF0960E177E280E090E00E
:100450000E94AC0660EF70E08DE292E00E94C2095B
:1004600060ED77E080E090E00E94AC066AEF70E01B
:100470008DE292E00E94C20960ED77E080E090E0BA
:100480000E94AC0664E071E08DE292E00E94C20935
:1004900060ED77E080E090E00E94AC066FE071E0F4
:1004A0008DE292E00E94C20960ED77E080E090E08A
:1004B0000C94AC060F9300E024E040E167E284E591
:1004C00091E00E9428050F91089590E080E0089542
:1004D0008091940190919501891B990B08959091B9
:1004E0009501809194012FEF3FEF981748F4E92F81
:1004F000F0E0EA56FE4F208130E09F5F9093950137
:10050000C9010895E091950180919401E81730F4B4
:10051000F0E0EA56FE4F808190E008958FEF9FEF64
:1005200008950895CF93DF93EC01E0916C01F09171
:100530006D013097F1F09091950180919401981799
:10054000C0F090E0292F30E02617370754F4DE0181
:10055000A20FB31F4C912A563E4FD9014C939F5F77
:10056000F1CF1092950160939401CB01DF91CF916F
:100570000994DF91CF910895E0916E01F0916F01A0
:10058000309729F010927201109271010994089528
:10059000CF93DF931F92CDB7DEB7698320917001AF
:1005A0002223F9F020917101203258F021E030E04F
:1005B000FC013383228390E080E00F90DF91CF91A4
:1005C000089580917201E82FF0E0ED58FE4F998177
:1005D00090838F5F809372018093710181E090E03E
:1005E000ECCF61E0CE0101960E94D103F7CFCF920C
:1005F000DF92EF92FF920F931F93CF93DF937C01D3
:10060000CB018A0120917001222389F0EB016B015B
:10061000C40ED51ECC15DD0569F06991D701ED91A9
:10062000FC910190F081E02DC7010995F3CF642F73
:100630000E94D103C801DF91CF911F910F91FF90CC
:10064000EF90DF90CF900895109295011092940151
:1006500010927201109271010E9467038CEB92E07C
:100660000E94FD0382E992E00C94F80381E08093FC
:1006700070016093930110927201109271010895BC
:100680000F93062F21E04091710163E771E08091A3
:1006900093010E947D0310927201109271011092D9
:1006A00070010F91089561E00C944003E0E6F1E0E1
:1006B0001382128288EE93E0A0E0B0E084839583F9
:1006C000A683B7838FE191E0918380830895109290
:1006D000230281E0809321021092200261E081E1F7
:1006E0000E94640761E080E10E946407089809980D
:1006F00088E480B985E486BF08950F93413208F0FD
:1007000048C0909123029111FCCF92E09093230274
:10071000009321029FEF9093B6011092FB0140934A
:10072000FA01362FACEFB1E0FB019E2F931B94171B
:1007300058F11092220290912202880F892B809307
:10074000220280912002813011F5109220028091C6
:10075000220283B906B603FCFACF85EC86BF2223BA
:1007600021F0809123028230D1F38091B6018F3F36
:1007700091F08091B601803281F08091B601803392
:1007800071F084E00F91089591919D93CECF85EE05
:10079000E5CF81E0F7CF80E0F5CF82E0F3CF83E0D3
:1007A000F1CF2091D801260F3327331F2132310595
:1007B000ECF420912302FC0190E080E0243069F009
:1007C00082E00895A091D8012191AC0146525E4F7C
:1007D000A40FB52FB11D2C930196861798F3809125
:1007E000D801680F6093D80180E0089581E00895F2
:1007F00090931D0280931C02089590931F02809392
:100800001E02089585ED86BF06B604FCFDCF10924A
:100810002302089585EC86BF1092230208951F924B
:100820000F920FB60F9211242F933F934F935F9324
:100830006F937F938F939F93AF93BF93EF93FF93A8
:1008400081B1887F803609F44CC008F03FC08832FF
:1008500009F4A4C018F5803109F49AC0B8F48823CB
:1008600009F4F2C0883009F493C0FF91EF91BF9171
:10087000AF919F918F917F916F915F914F913F9138
:100880002F910F900FBE0F901F901895883109F48B
:1008900085C0803251F78093B60115C0803409F4C9
:1008A00099C048F48033B9F38833F9F68093B601E0
:1008B0000E940A04DACF803509F481C0883509F432
:1008C00091C0883491F60E940204CFCF883909F490
:1008D00087C030F5883729F050F4883611F080371A
:1008E00021F683E0809323021092B70154C0883828
:1008F00009F476C0803919F0803809F0B6CF8091BC
:10090000B701803208F06CC0E091B70181E08E0F32
:100910008093B70183B1F0E0E854FE4F80833BC081
:10092000803B39F0E0F4803A09F473C0883A09F06A
:100930009CCF84E0809323021092D9011092D801B9
:10094000E0911E02F0911F0209958091D80181115A
:100950000FC081E08093D8011092DA0109C0803C79
:1009600009F470C0883C09F46DC0883B09F07DCF64
:10097000E091D90181E08E0F8093D901F0E0E65239
:10098000FE4F808183B99091D9018091D80126C012
:100990008091220283B985EC86BF67CF9091FB01DD
:1009A0008091FA01981748F5E091FB0181E08E0FE4
:1009B0008093FB01F0E0E450FE4F8081EBCFE091AB
:1009C000FB0181E08E0F8093FB0183B1F0E0E450E6
:1009D000FE4F80839091FB018091FA019817D8F225
:1009E00085E8DACFE091FB0181E08E0F8093FB0177
:1009F00083B1F0E0E450FE4F8083809121028111A9
:100A000062CF81E08093200284EA86BF10922302A5
:100A10002CCF0E940A048091B701803230F4E0911B
:100A2000B701F0E0E854FE4F10826091B70170E02A
:100A3000E0911C02F0911D0288EB91E00995109263
:100A4000B70113CF85ECE1CF1092B6013CCF0895EA
:100A50000F93FC011382128281E391E091838083E2
:100A6000648340872187028788E083870F910895F8
:100A70000F931F93CF938C01C62FFC01648180E6F6
:100A800091E00E943603F80163856C2B80E691E0CB
:100A90000E94C80280E691E0CF911F910F910C94C3
:100AA000530328E0FC01238760E00C9438050F9382
:100AB0001F93CF938C01C62F64600E94380581E09C
:100AC00090E00E94E5066C2F6B7FC8010E943805FC
:100AD00082E390E0CF911F910F910C94E5061F9354
:100AE000CF93DF93EC01162F0E943805612FCE01C2
:100AF000DF91CF911F910C9457050F931F93CF93C4
:100B0000DF938C01D62FC42F607F642B0E946F056A
:100B100080E1D89FB00111246C2BC801DF91CF91E7
:100B20001F910F910C946F0540E00C947D0561E0DE
:100B30000E94940580ED97E00C94E50662E00E9427
:100B4000940580ED97E00C94E506CF93DF93CDB745
:100B5000DEB728970FB6F894DEBF0FBECDBF28E0F2
:100B6000E0E6F0E0DE01119601900D922A95E1F7A2
:100B7000FC012185241710F44FEF420F50E0440F81
:100B8000551F21E030E02C0F3D1F420F531FFA018B
:100B90002081620F606828960FB6F894DEBF0FBE02
:100BA000CDBFDF91CF910C949405FC016681262F77
:100BB000246026836C600C94940541E00E947D05BE
:100BC00081E090E00895CF93DF93EC0180E691E01F
:100BD0000E9424031D828985823010F098E09D8355
:100BE0009A85992329F0813019F48D8184608D8351
:100BF00062E370E080E090E00E94AC066B85CE017D
:100C00000E94380568EE73E080E090E00E94AC0638
:100C100060E3CE010E946F0584E991E10E94E50640
:100C200060E3CE010E946F0584E991E10E94E50630
:100C300060E3CE010E946F0586E990E00E94E50620
:100C400060E2CE010E946F056D816062CE010E945C
:100C5000940584E08E83CE010E94D505CE010E94CA
:100C6000970582E08F8366E0CE010E949405CE0155
:100C7000DF91CF910C949E051F920F920FB60F92A9
:100C800011242F933F938F939F93AF93BF938091A2
:100C9000290290912A02A0912B02B0912C0230914E
:100CA000280223E0230F2D3768F126E8230F029650
:100CB000A11DB11D209328028093290290932A023E
:100CC000A0932B02B0932C028091240290912502D4
:100CD000A0912602B09127020196A11DB11D80931B
:100CE000240290932502A0932602B0932702BF917D
:100CF000AF919F918F913F912F910F900FBE0F90C9
:100D00001F9018950196A11DB11DD4CF3FB7F8943F
:100D10008091240290912502A0912602B091270291
:100D200022B708B600FE05C02F3F19F00196A11D9D
:100D3000B11D3FBFBA2FA92F982F8827BC01CD0125
:100D4000620F711D811D911D42E0660F771F881F84
:100D5000991F4A95D1F708958F929F92AF92BF92B3
:100D6000CF92DF92EF92FF926B017C010E94860688
:100D70004B015C01C114D104E104F104E9F00E94CB
:100D8000840A0E948606681979098A099B09683EC7
:100D900073408105910570F321E0C21AD108E10882
:100DA000F10888EE880E83E0981EA11CB11CC114C6
:100DB000D104E104F10429F7FF90EF90DF90CF9088
:100DC000BF90AF909F908F9008958230910538F03A
:100DD000880F991F880F991F05970197F1F70895BC
:100DE000789483B7836083BF83B7886483BF89B7F0
:100DF000816089BF82E08EBD8EB581608EBD8FB56A
:100E000081608FBD85B5846085BD85B5806485BDF5
:100E100087E886B91AB80895843059F028F48130EB
:100E200099F0823089F00895853039F0873041F0AB
:100E300008958FB58F778FBD08958FB58F7DFBCFC8
:100E400085B58F7D85BD089583B78F7D83BF089558
:100E5000CF93DF9390E0FC01EC58FF4F24918C5628
:100E60009F4FFC0184918823C9F090E0880F991F5F
:100E7000FC01E853FF4FA591B491FC01E254FF4FF0
:100E8000C591D49161110DC09FB7F8948C912095B4
:100E900082238C938881282328839FBFDF91CF9161
:100EA0000895623051F49FB7F8943C91822F809559
:100EB00083238C93E8812E2BEFCF8FB7F894EC919E
:100EC0002E2B2C938FBFEACF1F93CF93DF93282F26
:100ED00030E0F901EC5AFF4F8491F901EC58FF4FD3
:100EE000D491F901EC56FF4FC491CC23A9F0162FF1
:100EF00081110E940C07EC2FF0E0EE0FFF1FE2546F
:100F0000FF4FA591B4918FB7F894EC91111108C0DF
:100F1000D095DE23DC938FBFDF91CF911F91089591
:100F2000DE2BF8CF0F931F9390E0FC01EC58FF4F9E
:100F30007491FC01EC56FF4FE4916111672FF0E0D2
:100F4000EE0FFF1FEC54FF4F8591949189019A0198
:100F50003F70462F672F0E9496006115710581052D
:100F6000910529F06F5F7F4F8F4F9F4F9F701F91AB
:100F70000F910895FC01918D228D892F90E0805C66
:100F80009F4F821B91098F7399270895FC01918DC2
:100F9000828D981731F0828DE80FF11D858D90E0DC
:100FA00008958FEF9FEF0895FC01918D828D981722
:100FB00061F0A28DAE0FBF2FB11D5D968C91928D09
:100FC0009F5F9F73928F90E008958FEF9FEF08953A
:100FD000FC01538D448D252F30E0842F90E0821B3F
:100FE000930B541710F0CF960895019708958EE350
:100FF00099E0892B49F080E090E0892B29F00E944C
:101000003E0981110C9400000895FC01A48DA80FE5
:10101000B92FB11DA35ABF4F2C91848D90E001963A
:101020008F739927848FA689B7892C93A089B1895A
:101030008C9180648C93938D848D981306C0028864
:10104000F389E02D80818F7D80830895CF93DF9396
:10105000EC01888D8823B9F0AA89BB89E889F989D0
:101060008C9185FD03C0808186FD0DC00FB607FC05
:10107000F7CF8C9185FFF2CF808185FFEDCFCE0138
:101080000E940508E9CFDF91CF910895EF92FF927A
:101090000F931F93CF93DF93EC0181E0888F9B8D9B
:1010A0008C8D981316C0E889F989808185FF11C05D
:1010B000EE89FF896083E889F98980818064808373
:1010C00081E090E0DF91CF911F910F91FF90EF9021
:1010D0000895F62E0B8D10E00F5F1F4F0F73112731
:1010E000E02E8C8D8E110CC00FB607FCFACFE8896C
:1010F000F989808185FFF5CFCE010E940508F1CFE7
:10110000EB8DEC0FFD2FF11DE35AFF4FF0820B8F9B
:10111000EA89FB8980818062D2CFCF92DF92EF9201
:10112000FF921F93CF93DF93EC016A017B01122F93
:10113000E889F98982E08083C11481EED806E10450
:10114000F104A1F060E079E08DE390E0A701960161
:101150000E94B60B21503109410951095695479516
:1011600037952795211580E1380798F0E889F989A6
:10117000108260E874E88EE190E0A70196010E9479
:10118000B60B2150310941095109569547953795BC
:101190002795EC85FD853083EE85FF852083188EAD
:1011A0001068EC89FD891083EA89FB898081886950
:1011B0008083EA89FB8980818F7D8083DF91CF9155
:1011C0001F91FF90EF90DF90CF9008951F920F92A4
:1011D0000FB60F9211242F938F939F93EF93FF934A
:1011E000E0913D02F0913E028081E0914302F09156
:1011F000440282FD1BC09081809146028F5F8F73F5
:1012000020914702821741F0E0914602F0E0E35D51
:10121000FD4F958F80934602FF91EF919F918F91A3
:101220002F910F900FBE0F901F9018958081F4CFD3
:101230001F920F920FB60F9211242F933F934F934B
:101240005F936F937F938F939F93AF93BF93EF932E
:10125000FF938DE292E00E940508FF91EF91BF910C
:10126000AF919F918F917F916F915F914F913F913E
:101270002F910F900FBE0F901F9018958DE292E066
:101280000E94BA0721E0892B09F420E0822F0895FB
:10129000EDE2F2E01382128288EE93E0A0E0B0E08B
:1012A00084839583A683B7838DE391E091838083C4
:1012B00080E490E09587848729E230E037872687AD
:1012C0002BE230E0318B208B2AE230E0338B228B13
:1012D000958B848B8CE290E0978B868B118E128E8F
:1012E000138E148E0895AF92BF92CF92DF92EF9239
:1012F000FF920F931F93CF93DF936C017B018B01C0
:10130000040F151FEB015E01AE18BF08C017D1070F
:1013100059F06991D601ED91FC910190F081E02D99
:10132000C6010995892B79F7C501DF91CF911F91EE
:101330000F91FF90EF90DF90CF90BF90AF90089506
:10134000FB0101900020E9F73197AF01461B570BD5
:10135000DC01ED91FC910280F381E02D099461158F
:10136000710511F00C94A00990E080E00895DC0173
:10137000ED91FC910190F081E02D09946BE471E016
:101380000C94A0090F931F93CF93DF938C01D0E0AF
:10139000C0E06115710519F00E94A009EC01C801B7
:1013A0000E94BE098C0F9D1FDF91CF911F910F915D
:1013B00008958F929F92AF92BF92EF92FF920F93F8
:1013C0001F93CF93DF93CDB7DEB7A1970FB6F894F5
:1013D000DEBF0FBECDBF7C01FA01CB0119A22230C6
:1013E00008F42AE08E010F5D1F4F822E912CB12C44
:1013F000A12CBF01A50194010E94B60BF901CA01FD
:101400006A300CF5605DD8016E938D01232B242B7F
:10141000252B79F790E080E0109721F0BD01C701FE
:101420000E94A009A1960FB6F894DEBF0FBECDBFF3
:10143000DF91CF911F910F91FF90EF90BF90AF90F0
:101440009F908F900895695CDECFCF92DF92EF92EC
:10145000FF920F931F93CF93DF932115310581F4F2
:10146000DC01ED91FC910190F081E02D642FDF9182
:10147000CF911F910F91FF90EF90DF90CF90099443
:101480002A30310501F52AE077FF1DC06A017B0192
:10149000EC016DE20E94B7098C0144275527BA017F
:1014A0004C195D096E097F092AE0CE010E94D90915
:1014B000800F911FDF91CF911F910F91FF90EF90BF
:1014C000DF90CF900895DF91CF911F910F91FF9002
:1014D000EF90DF90CF900C94D9099A01AB01770F70
:1014E000660B770B0C94250A08950E94F0060E9463
:1014F000740A0E94DB00C7EFD7E00E9474012097B6
:10150000E1F30E94F707F9CF08950E948C0A6894CE
:10151000B1110C94430B08950E94280B88F09F573B
:1015200098F0B92F9927B751B0F0E1F0660F771F07
:10153000881F991F1AF0BA95C9F714C0B13091F0FD
:101540000E94420BB1E008950C94420B672F782F54
:101550008827B85F39F0B93FCCF3869577956795C2
:10156000B395D9F73EF490958095709561957F4F2E
:101570008F4F9F4F0895E89409C097FB3EF49095D4
:101580008095709561957F4F8F4F9F4F9923A9F05C
:10159000F92F96E9BB279395F695879577956795EB
:1015A000B795F111F8CFFAF4BB0F11F460FF1BC02F
:1015B0006F5F7F4F8F4F9F4F16C0882311F096E9C2
:1015C00011C0772321F09EE8872F762F05C0662370
:1015D00071F096E8862F70E060E02AF09A95660F29
:1015E000771F881FDAF7880F9695879597F90895E2
:1015F00097F99F6780E870E060E008959FEF80ECC6
:10160000089500240A941616170618060906089568
:1016100000240A9412161306140605060895092ECE
:101620000394000C11F4882352F0BB0F40F4BF2B3D
:1016300011F460FF04C06F5F7F4F8F4F9F4F08957D
:1016400057FD9058440F551F59F05F3F71F0479573
:10165000880F97FB991F61F09F3F79F08795089558
:10166000121613061406551FF2CF4695F1DF08C077
:10167000161617061806991FF1CF86957105610594
:1016800008940895E894BB2766277727CB0197F93C
:1016900008950E945C0B0C940F0B0E94010B38F014
:1016A0000E94080B20F0952311F00C94F80A0C947A
:1016B000FE0A11240C94430B0E94200B70F3959F9B
:1016C000C1F3950F50E0551F629FF001729FBB2739
:1016D000F00DB11D639FAA27F00DB11DAA1F649FD5
:1016E0006627B00DA11D661F829F2227B00DA11D88
:1016F000621F739FB00DA11D621F839FA00D611D0E
:10170000221F749F3327A00D611D231F849F600D2E
:10171000211D822F762F6A2F11249F5750409AF057
:10172000F1F088234AF0EE0FFF1FBB1F661F771FE3
:10173000881F91505040A9F79E3F510580F00C94AE
:10174000F80A0C94430B5F3FE4F3983ED4F386957C
:1017500077956795B795F795E7959F5FC1F7FE2B4E
:10176000880F911D9695879597F90895A1E21A2EF5
:10177000AA1BBB1BFD010DC0AA1FBB1FEE1FFF1F35
:10178000A217B307E407F50720F0A21BB30BE40B85
:10179000F50B661F771F881F991F1A9469F76095CC
:1017A0007095809590959B01AC01BD01CF01089586
:1017B000EE0FFF1F0590F491E02D0994F894FFCFF0
:1017C00000004000140054002A2A2A2A2A2A2A2A21
:1017D0002A2A2A2A2A2A2A2A002A20202057454C47
:1017E000434F4D45212120202A002A2020205761E7
:1017F0006974696E672E2E2E2E2E00636865636BEA
:1018000020756C747261736F6E69630020202064B0
:10181000697374616E63652E2E2E2E0020646973C9
:1018200074616E6365203A20202000636D002020E3
:10183000202073656E6420736D7320202020002E9D
:101840002E2E2E2E2E2E2E2E2E2E2E2E2E2E2E00E6
:1018500041542B434D47463D310041542B434D47A6
:10186000533D310030373138393532373831004364
:101870006F6E666F726D656432360000000000C8DE
:1018800002F7026502910268026F02820200000004
:1018900000DD057309650227050000000046087396
:0E18A00009E8072608BA07D407C6070D0A0094
:00000001FF
